:100000000C945D000C9485000C9485000C94850084
:100010000C9485000C9485000C9485000C9485004C
:100020000C9485000C9485000C9485000C941D01A3
:100030000C9485000C9485000C9485000C9485002C
:100040000C94D3000C9485000C9485000C948500CE
:100050000C9485000C9485000C9485000C9485000C
:100060000C9485000C94850000000008000201003B
:100070000003040700000000000000000000000072
:10008000250028002B0000000000240027002A0083
:10009000040404040404040402020202020203032E
:1000A0000303030301020408102040800102040836
:1000B00010200102040810203C0311241FBECFEFC2
:1000C000D8E0DEBFCDBF11E0A0E0B1E0ECEAF7E0A0
:1000D00002C005900D92A030B107D9F721E0A0E051
:1000E000B1E001C01D92A433B207E1F710E0CDE505
:1000F000D0E004C02197FE010E94CE03CC35D10789
:10010000C9F70E94DE010C94D4030C94000090E027
:10011000FC01E859FF4F3491FC01EC55FF4F24914D
:10012000FC01E057FF4FE491EE2309F43BC0332379
:1001300039F1333091F038F43130A9F0323001F533
:1001400084B58F7D12C0373091F03830A1F0343053
:10015000B9F4809180008F7D03C0809180008F77FB
:10016000809380000DC084B58F7784BD09C08091D5
:10017000B0008F7703C08091B0008F7D8093B00076
:10018000F0E0EE0FFF1FE458FF4FA591B4918FB739
:10019000F894EC91611103C020952E2301C02E2B01
:1001A0002C938FBF08951F920F920FB60F921124B8
:1001B0002F933F938F939F93AF93BF938091300181
:1001C00090913101A0913201B091330130912F0112
:1001D00023E0230F2D3720F40196A11DB11D05C08A
:1001E00026E8230F0296A11DB11D20932F018093B5
:1001F000300190933101A0933201B093330180918B
:100200002B0190912C01A0912D01B0912E0101960E
:10021000A11DB11D80932B0190932C01A0932D0162
:10022000B0932E01BF91AF919F918F913F912F91EC
:100230000F900FBE0F901F9018951F920F920FB640
:100240000F9211242F933F934F935F936F937F935C
:100250008F939F93AF93BF93EF93FF93809101018F
:1002600087FF05C010928500109284001BC020916A
:100270000101022E000C330B8091000190E0281741
:10028000390784F480910101082E000C990BFC01C0
:10029000EE0FFF1F8E0F9F1FFC01EE5FFE4F808150
:1002A00086FD15C0809101018F5F8093010120912F
:1002B0000101022E000C330B8091000190E0281701
:1002C0003907C4F4809101018C3064F113C080912E
:1002D0000101082E000C990BFC01EE0FFF1F8E0F81
:1002E0009F1FFC01EE5FFE4F808160E08F730E94D4
:1002F0008700D8CF80918400909185000496803447
:100300009C4918F480E49CE905C080918400909198
:100310008500049690938900809388008FEF8093E6
:1003200001013BC020918400309185008091010142
:10033000082E000C990BFC01EE0FFF1F8E0F9F1F64
:10034000FC01EE5FFE4F81819281820F931F90939B
:1003500089008093880080910101082E000C990B80
:10036000FC01EE0FFF1F8E0F9F1FFC01EE5FFE4F83
:10037000808186FF12C080910101082E000C990B2C
:10038000FC01EE0FFF1F8E0F9F1FFC01EE5FFE4F63
:10039000808161E08F730E948700FF91EF91BF9190
:1003A000AF919F918F917F916F915F914F913F910D
:1003B0002F910F900FBE0F901F901895789484B5D1
:1003C000826084BD84B5816084BD85B5826085BD51
:1003D00085B5816085BD80916E00816080936E00DF
:1003E00010928100809181008260809381008091D1
:1003F0008100816080938100809180008160809382
:1004000080008091B10084608093B1008091B00041
:1004100081608093B00080917A00846080937A003C
:1004200080917A00826080937A0080917A00816066
:1004300080937A0080917A00806880937A0010928D
:10044000C100809126018C3008F068C0E7EAF0E036
:100450002491E3E9F0E08491882399F090E0880FFB
:10046000991FFC01EA57FF4FA591B491FC01E45894
:10047000FF4F859194918FB7F894EC91E22BEC9318
:100480008FBF80912601E82FF0E09F01220F331FDC
:10049000E20FF31FEE5FFE4F9081907C936090839C
:1004A00010922701109228016CE00E94BB034CE0DF
:1004B000849FB001112440E050E09A01260F371FBD
:1004C000F901EE0FFF1F2E0F3F1FF901EE5FFE4FE8
:1004D000908196FD16C04F5F5F4F4C30510569F714
:1004E00081110FC01092800082E0809381001092F1
:1004F000850010928400B19A80916F008260809391
:100500006F00E0912601F0E0CF01880F991FE80FFE
:10051000F91FEE5FFE4F808180648083CC24CA94F3
:1005200023E0D22EE12CF12CC8E8D0E008E512E05F
:1005300034EB832E912CA12CB12C40E0242E40E0F2
:10054000342E50E450937C0080917A008064809334
:100550007A0080917A0086FDFCCFA091780080918E
:100560007900B0E0B82B24EB30E00E94C703A7016C
:1005700096010E945803F90130932A012093290122
:10058000203282E0380741055105DCF557FD06C0F1
:10059000253B31052CF0E4EBF0E002C0E0E0F0E0B8
:1005A000809127012E01481A510887FD5394D201EA
:1005B000AA0FBB1FAA0FBB1F2D01BB0F6608770830
:1005C00080912801B801681B710987FD7395660F3A
:1005D000771F660F771FCB01770FAA0BBB0B9C0110
:1005E000AD012419350946095709DF010E9482032C
:1005F000A50194010E945803420E531E641E751EED
:10060000F201209126012C3080F580912701AE0166
:10061000481B510987FD5395CA01880F991F880F00
:10062000991FE817F90784F080912801B801681B29
:10063000710987FD7395660F771F660F771FCF01CE
:100640006E177F070CF4CB010297880F991F6FB7C5
:10065000F89430E0A901440F551F240F351FF9010C
:10066000EE5FFE4F928381836FBF2114310409F442
:1006700068CF0E94000065CF809100018C30A0F40B
:1006800091E0980F909300018093260190E0FC0187
:10069000EE0FFF1F8E0F9F1FFC01EE5FFE4F88EBDA
:1006A0009BE09283818308958FEF809326010895C4
:1006B000052E97FB1EF400940E946F0357FD07D090
:1006C0000E948A0307FC03D04EF40C946F035095EC
:1006D0004095309521953F4F4F4F5F4F089590952E
:1006E0008095709561957F4F8F4F9F4F08950E9421
:1006F000AC03A59F900DB49F900DA49F800D911DFC
:1007000011240895B7FF0C9477030E947703821B8E
:10071000930B0895A1E21A2EAA1BBB1BFD010DC06D
:10072000AA1FBB1FEE1FFF1FA217B307E407F507A1
:1007300020F0A21BB30BE40BF50B661F771F881F7D
:10074000991F1A9469F760957095809590959B0113
:10075000AC01BD01CF010895A29FB001B39FC001BC
:10076000A39F700D811D1124911DB29F700D811DDD
:100770001124911D0895991B79E004C0991F9617C3
:1007800008F0961B881F7A95C9F7809508950E94F6
:10079000AC03B7FF0895821B930B0895EE0FFF1F64
:0C07A0000590F491E02D0994F894FFCF2F
:00000001FF
