:100000000C9461000C947E000C947E000C947E0095
:100010000C947E000C947E000C947E000C947E0068
:100020000C947E000C947E000C947E000C947E0058
:100030000C947E000C947E000C947E000C947E0048
:100040000C942E010C947E000C947E000C947E0087
:100050000C947E000C947E000C947E000C947E0028
:100060000C947E000C947E0000000000230026000B
:10007000290000000000240027002A0000000000E2
:10008000250028002B0004040404040404040202D4
:100090000202020203030303030301020408102007
:1000A0004080010204081020010204081020000012
:1000B0000008000201000003040700000000000027
:1000C000000011241FBECFEFD8E0DEBFCDBF11E08E
:1000D000A0E0B1E0E6E2F6E002C005900D92A030AB
:1000E000B107D9F721E0A0E0B1E001C01D92A6312F
:1000F000B207E1F70E9478010C9411030C94000000
:1001000090E0FC01E255FF4F2491FC01E656FF4FC1
:100110003491FC01EA57FF4FE491EE2309F43CC00F
:10012000222339F1233091F038F42130A9F0223024
:1001300001F584B58F7D12C0273091F02830A1F0F1
:100140002430B9F4809180008F7D03C080918000BD
:100150008F77809380000DC084B58F7784BD09C0F0
:100160008091B0008F7703C08091B0008F7D809325
:10017000B000F0E0EE0FFF1FE458FF4FA591B491DF
:100180009FB7F894611104C08C913095382302C058
:10019000EC913E2B3C939FBF0895CF93DF9390E06B
:1001A000FC01E656FF4F2491FC01EA57FF4F849172
:1001B000882361F190E0880F991FFC01EE58FF4FF2
:1001C000C591D491FC01E458FF4FA591B491611100
:1001D00009C09FB7F8948881209582238883EC9189
:1001E0002E230BC0623061F49FB7F8948881322FC0
:1001F000309583238883EC912E2B2C939FBF06C0D0
:100200008FB7F894E8812E2B28838FBFDF91CF9191
:1002100008953FB7F8948091120190911301A09135
:100220001401B091150126B5A89B05C02F3F19F008
:100230000196A11DB11D3FBFBA2FA92F982F882766
:10024000820F911DA11DB11DBC01CD0142E0660FC1
:10025000771F881F991F4A95D1F708951F920F9213
:100260000FB60F9211242F933F938F939F93AF93C9
:10027000BF9380910E0190910F01A0911001B09158
:10028000110130910D0123E0230F2D3720F4019649
:10029000A11DB11D05C026E8230F0296A11DB11DA9
:1002A00020930D0180930E0190930F01A0931001F4
:1002B000B09311018091120190911301A09114014A
:1002C000B09115010196A11DB11D8093120190936B
:1002D0001301A0931401B0931501BF91AF919F91A9
:1002E0008F913F912F910F900FBE0F901F901895F7
:1002F000789484B5826084BD84B5816084BD85B501
:10030000826085BD85B5816085BD80916E0081600C
:1003100080936E00109281008091810082608093B2
:1003200081008091810081608093810080918000B4
:100330008160809380008091B10084608093B100DF
:100340008091B00081608093B00080917A008460D9
:1003500080937A0080917A00826080937A00809105
:100360007A00816080937A0080917A00806880931F
:100370007A001092C100C2E061E08C2F0E94CD0093
:10038000CF5FC730C9F7C0E98C2E992493940AE057
:1003900010E0D0E0AD2ED0E0BD2EE7EAF0E03490E2
:1003A000E3E9F0E08491E82FF0E0EE0FFF1FE85959
:1003B000FF4FC591D49161E08DE00E94CD0060E0D7
:1003C0008DE00E9480000E9409012B013C01B2E1F6
:1003D000CB2ED12CE12CF12C0E940901DC01CB01A8
:1003E00084199509A609B709883E9340A105B1056E
:1003F00098F3F1E0CF1AD108E108F10828EE420E97
:1004000023E0521E611C711CC114D104E104F104EB
:1004100019F761E08DE00E94800060E08DE00E94AD
:10042000CD0080E293E02881232119F00197D9F7CC
:1004300051C080E991E02881232119F40197D9F76F
:1004400049C080E991E02881232119F00197D9F76B
:1004500041C0B0E0A0E0F0E8FF2E60E070E080E98D
:1004600091E040E951E0E0E038E22881232129F5DC
:10047000EE2319F1383261F48417950708F4AC01C2
:10048000B401641B750B769567957695679507C0E3
:10049000FA01E61BF70BE817F90708F0AF29F69405
:1004A00049F4EB2FF0E0E050FF4FA087BF5FA0E0E2
:1004B00090E8F92E315080E991E0019759F0E22F50
:1004C0003111D3CF61E08DE00E94CD0061E08DE07D
:1004D0000E948000609108016F776093080180910D
:1004E0000A01C82FCF77C0930A0170E080E090E046
:1004F0000E94AC026093000170930101809302019D
:10050000909303016C2F70E080E090E00E94AC02B9
:100510006093040170930501809306019093070195
:100520008C2F90E0B8010E94E902EB01229682E054
:10053000E82EF12CEC16FD0644F461E08E2D0E94AD
:100540008000FFEFEF1AFF0AF5CFA114B10409F400
:1005500024CF0E94000021CFE89409C097FB3EF40D
:1005600090958095709561957F4F8F4F9F4F992300
:10057000A9F0F92F96E9BB279395F695879577957E
:100580006795B795F111F8CFFAF4BB0F11F460FF3E
:100590001BC06F5F7F4F8F4F9F4F16C0882311F096
:1005A00096E911C0772321F09EE8872F762F05C0AA
:1005B000662371F096E8862F70E060E02AF09A9545
:1005C000660F771F881FDAF7880F9695879597F93A
:1005D000089597FB072E16F4009407D077FD09D0F5
:1005E0000E94FD0207FC05D03EF4909581959F4F37
:1005F0000895709561957F4F0895AA1BBB1B51E12B
:1006000007C0AA1FBB1FA617B70710F0A61BB70B82
:10061000881F991F5A95A9F780959095BC01CD0127
:060620000895F894FFCFDD
:00000001FF
