:100000000C945C000C9479000C9479000C947900A9
:100010000C9479000C9479000C9479000C9479007C
:100020000C9479000C9479000C9479000C9479006C
:100030000C9479000C9479000C9479000C9479005C
:100040000C94DF000C9479000C9479000C947900E6
:100050000C9479000C9479000C9479000C9479003C
:100060000C9479000C947900000000002400270013
:100070002A0000000000250028002B0004040404CE
:100080000404040402020202020203030303030342
:10009000010204081020408001020408102001021F
:1000A00004081020000000080002010000030407FB
:1000B000000000000000000011241FBECFEFD8E0B8
:1000C000DEBFCDBF11E0A0E0B1E0E2E9F4E002C0A4
:1000D00005900D92A030B107D9F721E0A0E0B1E082
:1000E00001C01D92AD30B207E1F70E9429010C94C6
:1000F00047020C940000EEEAF0E02491EAE9F0E017
:100100009491E6E8F0E0E491EE2309F43BC0222369
:1001100039F1233091F038F42130A9F0223001F583
:1001200024B52F7D12C0273091F02830A1F0243063
:10013000B9F4209180002F7D03C0209180002F779B
:10014000209380000DC024B52F7724BD09C02091D5
:10015000B0002F7703C02091B0002F7D2093B00016
:10016000F0E0EE0FFF1FEE58FF4FA591B4912FB7AF
:10017000F894EC91811103C090959E2301C09E2BB1
:100180009C932FBF0895EAE9F0E02491E6E8F0E0BF
:100190008491882399F090E0880F991FFC01E85919
:1001A000FF4FA591B491FC01EE58FF4F85919491BA
:1001B0008FB7F894EC91E22BEC938FBF08951F92C8
:1001C0000F920FB60F9211242F933F938F939F930B
:1001D000AF93BF938091090190910A01A0910B0107
:1001E000B0910C013091080123E0230F2D3720F44A
:1001F0000196A11DB11D05C026E8230F0296A11D81
:10020000B11D209308018093090190930A01A093E6
:100210000B01B0930C018091040190910501A09114
:100220000601B09107010196A11DB11D8093040143
:1002300090930501A0930601B0930701BF91AF9180
:100240009F918F913F912F910F900FBE0F901F9014
:100250001895789484B5826084BD84B5816084BD2E
:1002600085B5826085BD85B5816085BD80916E0054
:10027000816080936E001092810080918100826085
:1002800080938100809181008160809381008091C2
:1002900080008160809380008091B10084608093B1
:1002A000B1008091B00081608093B00080917A00AD
:1002B000846080937A0080917A00826080937A00D3
:1002C00080917A00816080937A0080917A008068C2
:1002D00080937A001092C10088248A9483E0982E3B
:1002E000A12CB12C0EEA10E0C1E0D0E0DD24D394C3
:1002F00090E0E92E90E0F92E20E4C22EC0927C001E
:1003000080917A00806480937A0080917A0086FDE3
:10031000FCCFA091780080917900B0E0B82BB09329
:100320000301A09302012FEF30E00E944002A501DB
:1003300094010E94F00130930101209300011216F4
:100340001306140615060CF03FC00E94C300F80106
:1003500084918330F9F048F48130B9F08230B1F5FE
:1003600084B5806284BDD8BC34C08730E9F0883061
:1003700019F1843059F5809180008062809380006B
:10038000D0938B00C0938A0024C094B5906894BD2C
:1003900087BD1FC080918000806880938000D093CB
:1003A0008900C093880015C08091B0008068809358
:1003B000B000D092B3000DC08091B00080628093F5
:1003C000B000D092B40005C00E94C30080E00E943B
:1003D0007B00E114F10409F491CF0E9400008ECF5C
:1003E000052E97FB1EF400940E94070257FD07D0CC
:1003F0000E940F0207FC03D04EF40C9407025095A4
:100400004095309521953F4F4F4F5F4F0895909500
:100410008095709561957F4F8F4F9F4F0895A1E212
:100420001A2EAA1BBB1BFD010DC0AA1FBB1FEE1F6E
:10043000FF1FA217B307E407F50720F0A21BB30BB9
:10044000E40BF50B661F771F881F991F1A9469F735
:1004500060957095809590959B01AC01BD01CF0191
:100460000895A29FB001B39FC001A39F700D811D8D
:100470001124911DB29F700D811D1124911D0895AD
:100480000E943102B7FF0895821B930B0895F894E0
:02049000FFCF9C
:00000001FF
