:100000000C945C000C946E000C946E000C946E00CA
:100010000C946E000C946E000C946E000C946E00A8
:100020000C946E000C946E000C946E000C946E0098
:100030000C946E000C946E000C946E000C946E0088
:100040000C949D010C946E000C946E000C946E0048
:100050000C946E000C946E000C946E000C946E0068
:100060000C946E000C946E00000000002400270029
:100070002A0000000000250028002B0004040404CE
:100080000404040402020202020203030303030342
:10009000010204081020408001020408102001021F
:1000A00004081020000000080002010000030407FB
:1000B000000000000000000011241FBECFEFD8E0B8
:1000C000DEBFCDBF21E0A0E0B1E001C01D92A930AC
:1000D000B207E1F70E94E7010C944F020C94000074
:1000E00090E0FC01EC55FF4F3491FC01E057FF4FCD
:1000F0002491FC01E458FF4FE491EE2309F43BC046
:10010000332339F1333091F038F43130A9F0323003
:1001100001F584B58F7D12C0373091F03830A1F0F1
:100120003430B9F4809180008F7D03C080918000CD
:100130008F77809380000DC084B58F7784BD09C010
:100140008091B0008F7703C08091B0008F7D809345
:10015000B000F0E0EE0FFF1FEE58FF4FA591B491F5
:100160008FB7F894EC91611103C020952E2301C044
:100170002E2B2C938FBF0895482F50E0FA01E057A3
:10018000FF4F9491FA01E458FF4F2491222399F0F4
:1001900030E0220F331FF901E859FF4FA591B491C8
:1001A000F901EE58FF4F259134912FB7F894EC9157
:1001B000E92BEC932FBF6115710511F460E004C0C9
:1001C0006F3F710519F461E00C947000FA01EC5571
:1001D000FF4FE491E330F9F048F4E130B9F0E23058
:1001E000A1F584B5806284BD68BD0895E730E9F06B
:1001F000E83019F1E43049F5809180008062809305
:10020000800070938B0060938A00089584B58068A5
:1002100084BD67BD089580918000806880938000D0
:10022000709389006093880008958091B000806881
:100230008093B0006093B30008958091B000806215
:100240008093B0006093B4000895603871050CF09D
:10025000BACFB4CF3FB7F8948091050190910601D1
:10026000A0910701B091080126B5A89B05C02F3FBA
:1002700019F00196A11DB11D3FBFBA2FA92F982FCC
:100280008827820F911DA11DB11DBC01CD0142E047
:10029000660F771F881F991F4A95D1F708958F928F
:1002A0009F92AF92BF92CF92DF92EF92FF920E9405
:1002B0002A014B015C0188EEC82E83E0D82EE12C88
:1002C000F12C0E942A01DC01CB0188199909AA09A5
:1002D000BB09883E9340A105B10558F021E0C21A40
:1002E000D108E108F10888EE880E83E0981EA11C71
:1002F000B11CC114D104E104F10419F7FF90EF908F
:10030000DF90CF90BF90AF909F908F9008950F9304
:100310001F93CF93DF938B01EA01BC0189E00E9418
:10032000BC00B8018AE00E94BC00BE018BE0DF91F6
:10033000CF911F910F910C94BC001F920F920FB69A
:100340000F9211242F933F938F939F93AF93BF935B
:100350008091010190910201A0910301B0910401EB
:100360003091000123E0230F2D3720F40196A11DC9
:10037000B11D05C026E8230F0296A11DB11D2093D3
:1003800000018093010190930201A0930301B093B7
:1003900004018091050190910601A0910701B0919F
:1003A00008010196A11DB11D8093050190930601DE
:1003B000A0930701B0930801BF91AF919F918F91D6
:1003C0003F912F910F900FBE0F901F90189578942A
:1003D00084B5826084BD84B5816084BD85B582604A
:1003E00085BD85B5816085BD80916E0081608093FB
:1003F0006E00109281008091810082608093810064
:100400008091810081608093810080918000816073
:10041000809380008091B10084608093B1008091CE
:10042000B00081608093B00080917A0084608093F6
:100430007A0080917A00826080937A0080917A00BD
:10044000816080937A0080917A00806880937A003E
:100450001092C100C0E0D0E040E050E060E070E009
:100460008FEF90E00E9487010E944F0140E050E032
:100470006FEF70E080E090E00E9487010E944F01E2
:100480004FEF50E060E070E080E090E00E94870174
:100490000E944F01209701F30E940000DDCFF894E5
:0204A000FFCF8C
:00000001FF
